{
  "_format": "hh-sol-artifact-1",
  "contractName": "PharmaChain",
  "sourceName": "contracts/PharmaChain.sol",
  "abi": [
    {
      "inputs": [],
      "stateMutability": "nonpayable",
      "type": "constructor"
    },
    {
      "anonymous": false,
      "inputs": [
        {
          "indexed": false,
          "internalType": "string",
          "name": "id",
          "type": "string"
        },
        {
          "indexed": true,
          "internalType": "address",
          "name": "creator",
          "type": "address"
        }
      ],
      "name": "BatchCreated",
      "type": "event"
    },
    {
      "anonymous": false,
      "inputs": [
        {
          "indexed": false,
          "internalType": "string",
          "name": "id",
          "type": "string"
        },
        {
          "indexed": true,
          "internalType": "address",
          "name": "from",
          "type": "address"
        },
        {
          "indexed": true,
          "internalType": "address",
          "name": "to",
          "type": "address"
        }
      ],
      "name": "BatchTransferred",
      "type": "event"
    },
    {
      "inputs": [
        {
          "internalType": "uint256",
          "name": "",
          "type": "uint256"
        }
      ],
      "name": "batchIds",
      "outputs": [
        {
          "internalType": "string",
          "name": "",
          "type": "string"
        }
      ],
      "stateMutability": "view",
      "type": "function"
    },
    {
      "inputs": [
        {
          "internalType": "string",
          "name": "",
          "type": "string"
        }
      ],
      "name": "batches",
      "outputs": [
        {
          "internalType": "string",
          "name": "id",
          "type": "string"
        },
        {
          "internalType": "string",
          "name": "compoundId",
          "type": "string"
        },
        {
          "internalType": "uint256",
          "name": "timestamp",
          "type": "uint256"
        },
        {
          "internalType": "address",
          "name": "currentHolder",
          "type": "address"
        },
        {
          "internalType": "bool",
          "name": "isVerified",
          "type": "bool"
        }
      ],
      "stateMutability": "view",
      "type": "function"
    },
    {
      "inputs": [
        {
          "internalType": "string",
          "name": "_id",
          "type": "string"
        },
        {
          "internalType": "string",
          "name": "_compoundId",
          "type": "string"
        }
      ],
      "name": "createBatch",
      "outputs": [],
      "stateMutability": "nonpayable",
      "type": "function"
    },
    {
      "inputs": [],
      "name": "getBatchCount",
      "outputs": [
        {
          "internalType": "uint256",
          "name": "",
          "type": "uint256"
        }
      ],
      "stateMutability": "view",
      "type": "function"
    },
    {
      "inputs": [],
      "name": "owner",
      "outputs": [
        {
          "internalType": "address",
          "name": "",
          "type": "address"
        }
      ],
      "stateMutability": "view",
      "type": "function"
    },
    {
      "inputs": [
        {
          "internalType": "string",
          "name": "_id",
          "type": "string"
        },
        {
          "internalType": "address",
          "name": "_to",
          "type": "address"
        }
      ],
      "name": "transferBatch",
      "outputs": [],
      "stateMutability": "nonpayable",
      "type": "function"
    }
  ],
  "bytecode": "0x608060405234801561001057600080fd5b50336000806101000a81548173ffffffffffffffffffffffffffffffffffffffff021916908373ffffffffffffffffffffffffffffffffffffffff1602179055506111f5806100606000396000f3fe608060405234801561001057600080fd5b50600436106100625760003560e01c80637ef1446a146100675780638da5cb5b1461009b57806392b8f021146100b9578063a8fabfa5146100d5578063b3d346b9146100f3578063b401563b14610123575b600080fd5b610081600480360381019061007c9190610969565b61013f565b604051610092959493929190610aa6565b60405180910390f35b6100a36102c8565b6040516100b09190610b07565b60405180910390f35b6100d360048036038101906100ce9190610b22565b6102ec565b005b6100dd61056f565b6040516100ea9190610b9a565b60405180910390f35b61010d60048036038101906101089190610be1565b61057c565b60405161011a9190610c0e565b60405180910390f35b61013d60048036038101906101389190610c5c565b610628565b005b60018180516020810182018051848252602083016020850120818352809550505050505060009150905080600001805461017890610ce7565b80601f01602080910402602001604051908101604052809291908181526020018280546101a490610ce7565b80156101f15780601f106101c6576101008083540402835291602001916101f1565b820191906000526020600020905b8154815290600101906020018083116101d457829003601f168201915b50505050509080600101805461020690610ce7565b80601f016020809104026020016040519081016040528092919081815260200182805461023290610ce7565b801561027f5780601f106102545761010080835404028352916020019161027f565b820191906000526020600020905b81548152906001019060200180831161026257829003601f168201915b5050505050908060020154908060030160009054906101000a900473ffffffffffffffffffffffffffffffffffffffff16908060030160149054906101000a900460ff16905085565b60008054906101000a900473ffffffffffffffffffffffffffffffffffffffff1681565b60008054906101000a900473ffffffffffffffffffffffffffffffffffffffff1673ffffffffffffffffffffffffffffffffffffffff163373ffffffffffffffffffffffffffffffffffffffff161461037a576040517f08c379a000000000000000000000000000000000000000000000000000000000815260040161037190610d8a565b60405180910390fd5b600060018360405161038c9190610de6565b908152602001604051809103902060000180546103a890610ce7565b9050146103ea576040517f08c379a00000000000000000000000000000000000000000000000000000000081526004016103e190610e49565b60405180910390fd5b6040518060a001604052808381526020018281526020014281526020013373ffffffffffffffffffffffffffffffffffffffff1681526020016001151581525060018360405161043a9190610de6565b9081526020016040518091039020600082015181600001908161045d9190611015565b5060208201518160010190816104739190611015565b506040820151816002015560608201518160030160006101000a81548173ffffffffffffffffffffffffffffffffffffffff021916908373ffffffffffffffffffffffffffffffffffffffff16021790555060808201518160030160146101000a81548160ff02191690831515021790555090505060028290806001815401808255809150506001900390600052602060002001600090919091909150908161051c9190611015565b503373ffffffffffffffffffffffffffffffffffffffff167faa2e1f9e65e9df2b17cca112ac2b09c46401f1dba8fc33f495fb371ac508459a836040516105639190610c0e565b60405180910390a25050565b6000600280549050905090565b6002818154811061058c57600080fd5b9060005260206000200160009150905080546105a790610ce7565b80601f01602080910402602001604051908101604052809291908181526020018280546105d390610ce7565b80156106205780601f106105f557610100808354040283529160200191610620565b820191906000526020600020905b81548152906001019060200180831161060357829003601f168201915b505050505081565b3373ffffffffffffffffffffffffffffffffffffffff1660018360405161064f9190610de6565b908152602001604051809103902060030160009054906101000a900473ffffffffffffffffffffffffffffffffffffffff1673ffffffffffffffffffffffffffffffffffffffff16146106d7576040517f08c379a00000000000000000000000000000000000000000000000000000000081526004016106ce90611133565b60405180910390fd5b600073ffffffffffffffffffffffffffffffffffffffff168173ffffffffffffffffffffffffffffffffffffffff1603610746576040517f08c379a000000000000000000000000000000000000000000000000000000000815260040161073d9061119f565b60405180910390fd5b806001836040516107579190610de6565b908152602001604051809103902060030160006101000a81548173ffffffffffffffffffffffffffffffffffffffff021916908373ffffffffffffffffffffffffffffffffffffffff1602179055508073ffffffffffffffffffffffffffffffffffffffff163373ffffffffffffffffffffffffffffffffffffffff167fa8b047db3c9b378a978a9cc59c0f75a2671f935a140d6799f8f56104f0ec6dd6846040516108039190610c0e565b60405180910390a35050565b6000604051905090565b600080fd5b600080fd5b600080fd5b600080fd5b6000601f19601f8301169050919050565b7f4e487b7100000000000000000000000000000000000000000000000000000000600052604160045260246000fd5b6108768261082d565b810181811067ffffffffffffffff821117156108955761089461083e565b5b80604052505050565b60006108a861080f565b90506108b4828261086d565b919050565b600067ffffffffffffffff8211156108d4576108d361083e565b5b6108dd8261082d565b9050602081019050919050565b82818337600083830152505050565b600061090c610907846108b9565b61089e565b90508281526020810184848401111561092857610927610828565b5b6109338482856108ea565b509392505050565b600082601f8301126109505761094f610823565b5b81356109608482602086016108f9565b91505092915050565b60006020828403121561097f5761097e610819565b5b600082013567ffffffffffffffff81111561099d5761099c61081e565b5b6109a98482850161093b565b91505092915050565b600081519050919050565b600082825260208201905092915050565b60005b838110156109ec5780820151818401526020810190506109d1565b60008484015250505050565b6000610a03826109b2565b610a0d81856109bd565b9350610a1d8185602086016109ce565b610a268161082d565b840191505092915050565b6000819050919050565b610a4481610a31565b82525050565b600073ffffffffffffffffffffffffffffffffffffffff82169050919050565b6000610a7582610a4a565b9050919050565b610a8581610a6a565b82525050565b60008115159050919050565b610aa081610a8b565b82525050565b600060a0820190508181036000830152610ac081886109f8565b90508181036020830152610ad481876109f8565b9050610ae36040830186610a3b565b610af06060830185610a7c565b610afd6080830184610a97565b9695505050505050565b6000602082019050610b1c6000830184610a7c565b92915050565b60008060408385031215610b3957610b38610819565b5b600083013567ffffffffffffffff811115610b5757610b5661081e565b5b610b638582860161093b565b925050602083013567ffffffffffffffff811115610b8457610b8361081e565b5b610b908582860161093b565b9150509250929050565b6000602082019050610baf6000830184610a3b565b92915050565b610bbe81610a31565b8114610bc957600080fd5b50565b600081359050610bdb81610bb5565b92915050565b600060208284031215610bf757610bf6610819565b5b6000610c0584828501610bcc565b91505092915050565b60006020820190508181036000830152610c2881846109f8565b905092915050565b610c3981610a6a565b8114610c4457600080fd5b50565b600081359050610c5681610c30565b92915050565b60008060408385031215610c7357610c72610819565b5b600083013567ffffffffffffffff811115610c9157610c9061081e565b5b610c9d8582860161093b565b9250506020610cae85828601610c47565b9150509250929050565b7f4e487b7100000000000000000000000000000000000000000000000000000000600052602260045260246000fd5b60006002820490506001821680610cff57607f821691505b602082108103610d1257610d11610cb8565b5b50919050565b7f4f6e6c79206f776e65722063616e2063616c6c20746869732066756e6374696f60008201527f6e00000000000000000000000000000000000000000000000000000000000000602082015250565b6000610d746021836109bd565b9150610d7f82610d18565b604082019050919050565b60006020820190508181036000830152610da381610d67565b9050919050565b600081905092915050565b6000610dc0826109b2565b610dca8185610daa565b9350610dda8185602086016109ce565b80840191505092915050565b6000610df28284610db5565b915081905092915050565b7f426174636820616c726561647920657869737473000000000000000000000000600082015250565b6000610e336014836109bd565b9150610e3e82610dfd565b602082019050919050565b60006020820190508181036000830152610e6281610e26565b9050919050565b60008190508160005260206000209050919050565b60006020601f8301049050919050565b600082821b905092915050565b600060088302610ecb7fffffffffffffffffffffffffffffffffffffffffffffffffffffffffffffffff82610e8e565b610ed58683610e8e565b95508019841693508086168417925050509392505050565b6000819050919050565b6000610f12610f0d610f0884610a31565b610eed565b610a31565b9050919050565b6000819050919050565b610f2c83610ef7565b610f40610f3882610f19565b848454610e9b565b825550505050565b600090565b610f55610f48565b610f60818484610f23565b505050565b5b81811015610f8457610f79600082610f4d565b600181019050610f66565b5050565b601f821115610fc957610f9a81610e69565b610fa384610e7e565b81016020851015610fb2578190505b610fc6610fbe85610e7e565b830182610f65565b50505b505050565b600082821c905092915050565b6000610fec60001984600802610fce565b1980831691505092915050565b60006110058383610fdb565b9150826002028217905092915050565b61101e826109b2565b67ffffffffffffffff8111156110375761103661083e565b5b6110418254610ce7565b61104c828285610f88565b600060209050601f83116001811461107f576000841561106d578287015190505b6110778582610ff9565b8655506110df565b601f19841661108d86610e69565b60005b828110156110b557848901518255600182019150602085019450602081019050611090565b868310156110d257848901516110ce601f891682610fdb565b8355505b6001600288020188555050505b505050505050565b7f4e6f74207468652063757272656e7420686f6c64657200000000000000000000600082015250565b600061111d6016836109bd565b9150611128826110e7565b602082019050919050565b6000602082019050818103600083015261114c81611110565b9050919050565b7f496e76616c696420616464726573730000000000000000000000000000000000600082015250565b6000611189600f836109bd565b915061119482611153565b602082019050919050565b600060208201905081810360008301526111b88161117c565b905091905056fea2646970667358221220d986b7c903e970d4e09e29f585bc5a48de17879460ee58c307a87e5e750b97f364736f6c63430008140033",
  "linkReferences": {},
  "deployedLinkReferences": {}
}